{
  "contractName": "HelloWorld",
  "abi": [
    {
      "inputs": [],
      "name": "helloWorld",
      "outputs": [
        {
          "internalType": "string",
          "name": "",
          "type": "string"
        }
      ],
      "stateMutability": "pure",
      "type": "function",
      "constant": true
    },
    {
      "inputs": [],
      "name": "helloWorld2",
      "outputs": [
        {
          "internalType": "string",
          "name": "",
          "type": "string"
        }
      ],
      "stateMutability": "nonpayable",
      "type": "function"
    },
    {
      "inputs": [
        {
          "internalType": "string",
          "name": "s",
          "type": "string"
        }
      ],
      "name": "echo",
      "outputs": [
        {
          "internalType": "string",
          "name": "",
          "type": "string"
        }
      ],
      "stateMutability": "pure",
      "type": "function",
      "constant": true
    }
  ],
  "bytecode": "0x608060405234801561001057600080fd5b506103b9806100206000396000f3fe608060405234801561001057600080fd5b50600436106100415760003560e01c80636cdc3ce314610046578063c605f76c14610064578063f15da72914610082575b600080fd5b61004e6100b2565b60405161005b91906101cf565b60405180910390f35b61006c6100ef565b60405161007991906101cf565b60405180910390f35b61009c6004803603810190610097919061033a565b61012c565b6040516100a991906101cf565b60405180910390f35b60606040518060400160405280600b81526020017f48656c6c6f576f726c6432000000000000000000000000000000000000000000815250905090565b60606040518060400160405280600a81526020017f48656c6c6f576f726c6400000000000000000000000000000000000000000000815250905090565b6060819050919050565b600081519050919050565b600082825260208201905092915050565b60005b83811015610170578082015181840152602081019050610155565b8381111561017f576000848401525b50505050565b6000601f19601f8301169050919050565b60006101a182610136565b6101ab8185610141565b93506101bb818560208601610152565b6101c481610185565b840191505092915050565b600060208201905081810360008301526101e98184610196565b905092915050565b6000604051905090565b600080fd5b600080fd5b600080fd5b600080fd5b7f4e487b7100000000000000000000000000000000000000000000000000000000600052604160045260246000fd5b61024782610185565b810181811067ffffffffffffffff821117156102665761026561020f565b5b80604052505050565b60006102796101f1565b9050610285828261023e565b919050565b600067ffffffffffffffff8211156102a5576102a461020f565b5b6102ae82610185565b9050602081019050919050565b82818337600083830152505050565b60006102dd6102d88461028a565b61026f565b9050828152602081018484840111156102f9576102f861020a565b5b6103048482856102bb565b509392505050565b600082601f83011261032157610320610205565b5b81356103318482602086016102ca565b91505092915050565b6000602082840312156103505761034f6101fb565b5b600082013567ffffffffffffffff81111561036e5761036d610200565b5b61037a8482850161030c565b9150509291505056fea2646970667358221220f2a151441b8a37a321933fefa9ee0d49cb3305ccaa34ffeb0cd75436cf8189cd64736f6c634300080d0033",
  "immutableReferences": {},
  "source": "// SPDX-License-Identifier: MIT\r\n// Tells the Solidity compiler to compile only from v0.8.13 to v0.9.0\r\npragma solidity ^0.8.13;\r\n\r\ncontract HelloWorld {\r\n    function helloWorld() public pure returns (string memory){\r\n        return \"HelloWorld\";\r\n    }\r\n    function helloWorld2() public returns (string memory){\r\n        return \"HelloWorld2\";\r\n    }\r\n    function echo(string memory s) public pure returns (string memory){\r\n        return s;\r\n    }\r\n}\r\n",
  "sourcePath": "D:\\code\\nodejs\\dsa4js\\app\\solidity\\MetaCoin\\contracts\\HelloWorld.sol",
  "compiler": {
    "name": "solc",
    "version": "0.8.13+commit.abaa5c0e.Emscripten.clang"
  },
  "schemaVersion": "3.4.9",
  "updatedAt": "2022-09-01T13:03:12.993Z",
  "networkType": "ethereum",
  "devdoc": {
    "kind": "dev",
    "methods": {},
    "version": 1
  },
  "userdoc": {
    "kind": "user",
    "methods": {},
    "version": 1
  }
}